{
  "_format": "hh-sol-artifact-1",
  "contractName": "Certificate",
  "sourceName": "contracts/certificate.sol",
  "abi": [
    {
      "inputs": [
        {
          "internalType": "string",
          "name": "_userName",
          "type": "string"
        },
        {
          "internalType": "string",
          "name": "_fileName",
          "type": "string"
        },
        {
          "internalType": "string",
          "name": "_url",
          "type": "string"
        },
        {
          "internalType": "string",
          "name": "_id",
          "type": "string"
        },
        {
          "internalType": "string",
          "name": "_key",
          "type": "string"
        },
        {
          "internalType": "address",
          "name": "_user",
          "type": "address"
        }
      ],
      "name": "addCertificate",
      "outputs": [],
      "stateMutability": "payable",
      "type": "function"
    },
    {
      "inputs": [
        {
          "internalType": "address",
          "name": "",
          "type": "address"
        },
        {
          "internalType": "string",
          "name": "",
          "type": "string"
        }
      ],
      "name": "certificates",
      "outputs": [
        {
          "internalType": "string",
          "name": "userName",
          "type": "string"
        },
        {
          "internalType": "string",
          "name": "fileName",
          "type": "string"
        },
        {
          "internalType": "string",
          "name": "url",
          "type": "string"
        },
        {
          "internalType": "string",
          "name": "id",
          "type": "string"
        },
        {
          "internalType": "uint256",
          "name": "issueDate",
          "type": "uint256"
        },
        {
          "internalType": "string",
          "name": "key",
          "type": "string"
        },
        {
          "internalType": "address",
          "name": "user",
          "type": "address"
        },
        {
          "internalType": "bool",
          "name": "isAdded",
          "type": "bool"
        },
        {
          "internalType": "enum Certificate.Status",
          "name": "status",
          "type": "uint8"
        }
      ],
      "stateMutability": "view",
      "type": "function"
    },
    {
      "inputs": [
        {
          "internalType": "address",
          "name": "_user",
          "type": "address"
        },
        {
          "internalType": "string",
          "name": "_id",
          "type": "string"
        }
      ],
      "name": "getCertificate",
      "outputs": [
        {
          "internalType": "string",
          "name": "",
          "type": "string"
        },
        {
          "internalType": "string",
          "name": "",
          "type": "string"
        },
        {
          "internalType": "uint256",
          "name": "",
          "type": "uint256"
        },
        {
          "internalType": "string",
          "name": "",
          "type": "string"
        },
        {
          "internalType": "string",
          "name": "",
          "type": "string"
        },
        {
          "internalType": "enum Certificate.Status",
          "name": "",
          "type": "uint8"
        }
      ],
      "stateMutability": "view",
      "type": "function"
    },
    {
      "inputs": [
        {
          "internalType": "address",
          "name": "_user",
          "type": "address"
        },
        {
          "internalType": "string",
          "name": "_id",
          "type": "string"
        }
      ],
      "name": "revokeCertificate",
      "outputs": [
        {
          "internalType": "string",
          "name": "",
          "type": "string"
        }
      ],
      "stateMutability": "nonpayable",
      "type": "function"
    }
  ],
  "bytecode": "0x608060405234801561001057600080fd5b5061191f806100206000396000f3fe60806040526004361061003f5760003560e01c80631f16fb4d1461004457806326bf0f031461008157806363e7e85b146100c3578063c3bac0c214610108575b600080fd5b34801561005057600080fd5b5061006b6004803603810190610066919061102b565b610124565b6040516100789190611106565b60405180910390f35b34801561008d57600080fd5b506100a860048036038101906100a3919061102b565b61029d565b6040516100ba969594939291906111b8565b60405180910390f35b3480156100cf57600080fd5b506100ea60048036038101906100e5919061102b565b6107dc565b6040516100ff9998979695949392919061125f565b60405180910390f35b610122600480360381019061011d919061130f565b610b2f565b005b6060600073ffffffffffffffffffffffffffffffffffffffff168373ffffffffffffffffffffffffffffffffffffffff1603610195576040517f08c379a000000000000000000000000000000000000000000000000000000000815260040161018c90611474565b60405180910390fd5b60008251036101d9576040517f08c379a00000000000000000000000000000000000000000000000000000000081526004016101d090611506565b60405180910390fd5b60026000808573ffffffffffffffffffffffffffffffffffffffff1673ffffffffffffffffffffffffffffffffffffffff168152602001908152602001600020836040516102279190611562565b908152602001604051809103902060060160156101000a81548160ff0219169083600281111561025a57610259611141565b5b02179055506040518060400160405280600781526020017f5375636365737300000000000000000000000000000000000000000000000000815250905092915050565b606080600060608060008073ffffffffffffffffffffffffffffffffffffffff168873ffffffffffffffffffffffffffffffffffffffff1603610315576040517f08c379a000000000000000000000000000000000000000000000000000000000815260040161030c90611474565b60405180910390fd5b6000875103610359576040517f08c379a000000000000000000000000000000000000000000000000000000000815260040161035090611506565b60405180910390fd5b6000808973ffffffffffffffffffffffffffffffffffffffff1673ffffffffffffffffffffffffffffffffffffffff168152602001908152602001600020876040516103a59190611562565b90815260200160405180910390206000016000808a73ffffffffffffffffffffffffffffffffffffffff1673ffffffffffffffffffffffffffffffffffffffff168152602001908152602001600020886040516104029190611562565b90815260200160405180910390206001016000808b73ffffffffffffffffffffffffffffffffffffffff1673ffffffffffffffffffffffffffffffffffffffff1681526020019081526020016000208960405161045f9190611562565b9081526020016040518091039020600401546000808c73ffffffffffffffffffffffffffffffffffffffff1673ffffffffffffffffffffffffffffffffffffffff1681526020019081526020016000208a6040516104bd9190611562565b90815260200160405180910390206005016000808d73ffffffffffffffffffffffffffffffffffffffff1673ffffffffffffffffffffffffffffffffffffffff1681526020019081526020016000208b60405161051a9190611562565b90815260200160405180910390206002016000808e73ffffffffffffffffffffffffffffffffffffffff1673ffffffffffffffffffffffffffffffffffffffff1681526020019081526020016000208c6040516105779190611562565b908152602001604051809103902060060160159054906101000a900460ff168580546105a2906115a8565b80601f01602080910402602001604051908101604052809291908181526020018280546105ce906115a8565b801561061b5780601f106105f05761010080835404028352916020019161061b565b820191906000526020600020905b8154815290600101906020018083116105fe57829003601f168201915b5050505050955084805461062e906115a8565b80601f016020809104026020016040519081016040528092919081815260200182805461065a906115a8565b80156106a75780601f1061067c576101008083540402835291602001916106a7565b820191906000526020600020905b81548152906001019060200180831161068a57829003601f168201915b505050505094508280546106ba906115a8565b80601f01602080910402602001604051908101604052809291908181526020018280546106e6906115a8565b80156107335780601f1061070857610100808354040283529160200191610733565b820191906000526020600020905b81548152906001019060200180831161071657829003601f168201915b50505050509250818054610746906115a8565b80601f0160208091040260200160405190810160405280929190818152602001828054610772906115a8565b80156107bf5780601f10610794576101008083540402835291602001916107bf565b820191906000526020600020905b8154815290600101906020018083116107a257829003601f168201915b505050505091509550955095509550955095509295509295509295565b60006020528160005260406000208180516020810182018051848252602083016020850120818352809550505050505060009150915050806000018054610822906115a8565b80601f016020809104026020016040519081016040528092919081815260200182805461084e906115a8565b801561089b5780601f106108705761010080835404028352916020019161089b565b820191906000526020600020905b81548152906001019060200180831161087e57829003601f168201915b5050505050908060010180546108b0906115a8565b80601f01602080910402602001604051908101604052809291908181526020018280546108dc906115a8565b80156109295780601f106108fe57610100808354040283529160200191610929565b820191906000526020600020905b81548152906001019060200180831161090c57829003601f168201915b50505050509080600201805461093e906115a8565b80601f016020809104026020016040519081016040528092919081815260200182805461096a906115a8565b80156109b75780601f1061098c576101008083540402835291602001916109b7565b820191906000526020600020905b81548152906001019060200180831161099a57829003601f168201915b5050505050908060030180546109cc906115a8565b80601f01602080910402602001604051908101604052809291908181526020018280546109f8906115a8565b8015610a455780601f10610a1a57610100808354040283529160200191610a45565b820191906000526020600020905b815481529060010190602001808311610a2857829003601f168201915b505050505090806004015490806005018054610a60906115a8565b80601f0160208091040260200160405190810160405280929190818152602001828054610a8c906115a8565b8015610ad95780601f10610aae57610100808354040283529160200191610ad9565b820191906000526020600020905b815481529060010190602001808311610abc57829003601f168201915b5050505050908060060160009054906101000a900473ffffffffffffffffffffffffffffffffffffffff16908060060160149054906101000a900460ff16908060060160159054906101000a900460ff16905089565b600015156000808373ffffffffffffffffffffffffffffffffffffffff1673ffffffffffffffffffffffffffffffffffffffff16815260200190815260200160002084604051610b7f9190611562565b908152602001604051809103902060060160149054906101000a900460ff16151514610be0576040517f08c379a0000000000000000000000000000000000000000000000000000000008152600401610bd79061164b565b60405180910390fd5b60008060008373ffffffffffffffffffffffffffffffffffffffff1673ffffffffffffffffffffffffffffffffffffffff16815260200190815260200160002084604051610c2e9190611562565b90815260200160405180910390206003018054610c4a906115a8565b905014610c8c576040517f08c379a0000000000000000000000000000000000000000000000000000000008152600401610c8390611506565b60405180910390fd5b60006040518061012001604052808881526020018781526020018681526020018581526020014281526020018481526020018373ffffffffffffffffffffffffffffffffffffffff16815260200160011515815260200160016002811115610cf757610cf6611141565b5b8152509050806000808473ffffffffffffffffffffffffffffffffffffffff1673ffffffffffffffffffffffffffffffffffffffff16815260200190815260200160002085604051610d499190611562565b90815260200160405180910390206000820151816000019081610d6c9190611817565b506020820151816001019081610d829190611817565b506040820151816002019081610d989190611817565b506060820151816003019081610dae9190611817565b506080820151816004015560a0820151816005019081610dce9190611817565b5060c08201518160060160006101000a81548173ffffffffffffffffffffffffffffffffffffffff021916908373ffffffffffffffffffffffffffffffffffffffff16021790555060e08201518160060160146101000a81548160ff0219169083151502179055506101008201518160060160156101000a81548160ff02191690836002811115610e6257610e61611141565b5b021790555090505050505050505050565b6000604051905090565b600080fd5b600080fd5b600073ffffffffffffffffffffffffffffffffffffffff82169050919050565b6000610eb282610e87565b9050919050565b610ec281610ea7565b8114610ecd57600080fd5b50565b600081359050610edf81610eb9565b92915050565b600080fd5b600080fd5b6000601f19601f8301169050919050565b7f4e487b7100000000000000000000000000000000000000000000000000000000600052604160045260246000fd5b610f3882610eef565b810181811067ffffffffffffffff82111715610f5757610f56610f00565b5b80604052505050565b6000610f6a610e73565b9050610f768282610f2f565b919050565b600067ffffffffffffffff821115610f9657610f95610f00565b5b610f9f82610eef565b9050602081019050919050565b82818337600083830152505050565b6000610fce610fc984610f7b565b610f60565b905082815260208101848484011115610fea57610fe9610eea565b5b610ff5848285610fac565b509392505050565b600082601f83011261101257611011610ee5565b5b8135611022848260208601610fbb565b91505092915050565b6000806040838503121561104257611041610e7d565b5b600061105085828601610ed0565b925050602083013567ffffffffffffffff81111561107157611070610e82565b5b61107d85828601610ffd565b9150509250929050565b600081519050919050565b600082825260208201905092915050565b60005b838110156110c15780820151818401526020810190506110a6565b60008484015250505050565b60006110d882611087565b6110e28185611092565b93506110f28185602086016110a3565b6110fb81610eef565b840191505092915050565b6000602082019050818103600083015261112081846110cd565b905092915050565b6000819050919050565b61113b81611128565b82525050565b7f4e487b7100000000000000000000000000000000000000000000000000000000600052602160045260246000fd5b6003811061118157611180611141565b5b50565b600081905061119282611170565b919050565b60006111a282611184565b9050919050565b6111b281611197565b82525050565b600060c08201905081810360008301526111d281896110cd565b905081810360208301526111e681886110cd565b90506111f56040830187611132565b818103606083015261120781866110cd565b9050818103608083015261121b81856110cd565b905061122a60a08301846111a9565b979650505050505050565b61123e81610ea7565b82525050565b60008115159050919050565b61125981611244565b82525050565b600061012082019050818103600083015261127a818c6110cd565b9050818103602083015261128e818b6110cd565b905081810360408301526112a2818a6110cd565b905081810360608301526112b681896110cd565b90506112c56080830188611132565b81810360a08301526112d781876110cd565b90506112e660c0830186611235565b6112f360e0830185611250565b6113016101008301846111a9565b9a9950505050505050505050565b60008060008060008060c0878903121561132c5761132b610e7d565b5b600087013567ffffffffffffffff81111561134a57611349610e82565b5b61135689828a01610ffd565b965050602087013567ffffffffffffffff81111561137757611376610e82565b5b61138389828a01610ffd565b955050604087013567ffffffffffffffff8111156113a4576113a3610e82565b5b6113b089828a01610ffd565b945050606087013567ffffffffffffffff8111156113d1576113d0610e82565b5b6113dd89828a01610ffd565b935050608087013567ffffffffffffffff8111156113fe576113fd610e82565b5b61140a89828a01610ffd565b92505060a061141b89828a01610ed0565b9150509295509295509295565b7f557365722061646472657373206d757374206e6f7420626520656d7074790000600082015250565b600061145e601e83611092565b915061146982611428565b602082019050919050565b6000602082019050818103600083015261148d81611451565b9050919050565b7f4365727469666963617465206964206d757374206e6f7420626520656d70747960008201527f2e00000000000000000000000000000000000000000000000000000000000000602082015250565b60006114f0602183611092565b91506114fb82611494565b604082019050919050565b6000602082019050818103600083015261151f816114e3565b9050919050565b600081905092915050565b600061153c82611087565b6115468185611526565b93506115568185602086016110a3565b80840191505092915050565b600061156e8284611531565b915081905092915050565b7f4e487b7100000000000000000000000000000000000000000000000000000000600052602260045260246000fd5b600060028204905060018216806115c057607f821691505b6020821081036115d3576115d2611579565b5b50919050565b7f4365727469666963617465206d757374206e6f7420626520616c72656164792060008201527f61646465642e0000000000000000000000000000000000000000000000000000602082015250565b6000611635602683611092565b9150611640826115d9565b604082019050919050565b6000602082019050818103600083015261166481611628565b9050919050565b60008190508160005260206000209050919050565b60006020601f8301049050919050565b600082821b905092915050565b6000600883026116cd7fffffffffffffffffffffffffffffffffffffffffffffffffffffffffffffffff82611690565b6116d78683611690565b95508019841693508086168417925050509392505050565b6000819050919050565b600061171461170f61170a84611128565b6116ef565b611128565b9050919050565b6000819050919050565b61172e836116f9565b61174261173a8261171b565b84845461169d565b825550505050565b600090565b61175761174a565b611762818484611725565b505050565b5b818110156117865761177b60008261174f565b600181019050611768565b5050565b601f8211156117cb5761179c8161166b565b6117a584611680565b810160208510156117b4578190505b6117c86117c085611680565b830182611767565b50505b505050565b600082821c905092915050565b60006117ee600019846008026117d0565b1980831691505092915050565b600061180783836117dd565b9150826002028217905092915050565b61182082611087565b67ffffffffffffffff81111561183957611838610f00565b5b61184382546115a8565b61184e82828561178a565b600060209050601f831160018114611881576000841561186f578287015190505b61187985826117fb565b8655506118e1565b601f19841661188f8661166b565b60005b828110156118b757848901518255600182019150602085019450602081019050611892565b868310156118d457848901516118d0601f8916826117dd565b8355505b6001600288020188555050505b50505050505056fea26469706673582212206e64461469b21ddbdbc9d8f4369f03c5ba5f62639f1d555123e4346ee7341a7f64736f6c63430008110033",
  "linkReferences": {},
  "deployedLinkReferences": {}
}