{
  "_format": "hh-sol-artifact-1",
  "contractName": "Certificate",
  "sourceName": "contracts/certificate.sol",
  "abi": [
    {
      "inputs": [
        {
          "internalType": "string",
          "name": "_userName",
          "type": "string"
        },
        {
          "internalType": "string",
          "name": "_fileName",
          "type": "string"
        },
        {
          "internalType": "string",
          "name": "_url",
          "type": "string"
        },
        {
          "internalType": "string",
          "name": "_id",
          "type": "string"
        },
        {
          "internalType": "string",
          "name": "_key",
          "type": "string"
        },
        {
          "internalType": "address",
          "name": "_user",
          "type": "address"
        }
      ],
      "name": "addCertificate",
      "outputs": [],
      "stateMutability": "nonpayable",
      "type": "function"
    },
    {
      "inputs": [
        {
          "internalType": "address",
          "name": "",
          "type": "address"
        },
        {
          "internalType": "string",
          "name": "",
          "type": "string"
        }
      ],
      "name": "certificates",
      "outputs": [
        {
          "internalType": "string",
          "name": "userName",
          "type": "string"
        },
        {
          "internalType": "string",
          "name": "fileName",
          "type": "string"
        },
        {
          "internalType": "string",
          "name": "url",
          "type": "string"
        },
        {
          "internalType": "string",
          "name": "id",
          "type": "string"
        },
        {
          "internalType": "uint256",
          "name": "issueDate",
          "type": "uint256"
        },
        {
          "internalType": "string",
          "name": "key",
          "type": "string"
        },
        {
          "internalType": "address",
          "name": "user",
          "type": "address"
        },
        {
          "internalType": "bool",
          "name": "isAdded",
          "type": "bool"
        },
        {
          "internalType": "enum Certificate.Status",
          "name": "status",
          "type": "uint8"
        }
      ],
      "stateMutability": "view",
      "type": "function"
    },
    {
      "inputs": [
        {
          "internalType": "address",
          "name": "_user",
          "type": "address"
        },
        {
          "internalType": "string",
          "name": "_id",
          "type": "string"
        }
      ],
      "name": "getCertificate",
      "outputs": [
        {
          "internalType": "string",
          "name": "",
          "type": "string"
        },
        {
          "internalType": "string",
          "name": "",
          "type": "string"
        },
        {
          "internalType": "uint256",
          "name": "",
          "type": "uint256"
        },
        {
          "internalType": "string",
          "name": "",
          "type": "string"
        },
        {
          "internalType": "string",
          "name": "",
          "type": "string"
        },
        {
          "internalType": "enum Certificate.Status",
          "name": "",
          "type": "uint8"
        }
      ],
      "stateMutability": "view",
      "type": "function"
    },
    {
      "inputs": [
        {
          "internalType": "address",
          "name": "_user",
          "type": "address"
        },
        {
          "internalType": "string",
          "name": "_id",
          "type": "string"
        }
      ],
      "name": "revokeCertificate",
      "outputs": [
        {
          "internalType": "string",
          "name": "",
          "type": "string"
        }
      ],
      "stateMutability": "nonpayable",
      "type": "function"
    }
  ],
  "bytecode": "0x608060405234801561001057600080fd5b50611905806100206000396000f3fe608060405234801561001057600080fd5b506004361061004c5760003560e01c80631f16fb4d1461005157806326bf0f031461008157806363e7e85b146100b6578063c3bac0c2146100ee575b600080fd5b61006b60048036038101906100669190611011565b61010a565b60405161007891906110ec565b60405180910390f35b61009b60048036038101906100969190611011565b610283565b6040516100ad9695949392919061119e565b60405180910390f35b6100d060048036038101906100cb9190611011565b6107c2565b6040516100e599989796959493929190611245565b60405180910390f35b610108600480360381019061010391906112f5565b610b15565b005b6060600073ffffffffffffffffffffffffffffffffffffffff168373ffffffffffffffffffffffffffffffffffffffff160361017b576040517f08c379a00000000000000000000000000000000000000000000000000000000081526004016101729061145a565b60405180910390fd5b60008251036101bf576040517f08c379a00000000000000000000000000000000000000000000000000000000081526004016101b6906114ec565b60405180910390fd5b60026000808573ffffffffffffffffffffffffffffffffffffffff1673ffffffffffffffffffffffffffffffffffffffff1681526020019081526020016000208360405161020d9190611548565b908152602001604051809103902060060160156101000a81548160ff021916908360028111156102405761023f611127565b5b02179055506040518060400160405280600781526020017f5375636365737300000000000000000000000000000000000000000000000000815250905092915050565b606080600060608060008073ffffffffffffffffffffffffffffffffffffffff168873ffffffffffffffffffffffffffffffffffffffff16036102fb576040517f08c379a00000000000000000000000000000000000000000000000000000000081526004016102f29061145a565b60405180910390fd5b600087510361033f576040517f08c379a0000000000000000000000000000000000000000000000000000000008152600401610336906114ec565b60405180910390fd5b6000808973ffffffffffffffffffffffffffffffffffffffff1673ffffffffffffffffffffffffffffffffffffffff1681526020019081526020016000208760405161038b9190611548565b90815260200160405180910390206000016000808a73ffffffffffffffffffffffffffffffffffffffff1673ffffffffffffffffffffffffffffffffffffffff168152602001908152602001600020886040516103e89190611548565b90815260200160405180910390206001016000808b73ffffffffffffffffffffffffffffffffffffffff1673ffffffffffffffffffffffffffffffffffffffff168152602001908152602001600020896040516104459190611548565b9081526020016040518091039020600401546000808c73ffffffffffffffffffffffffffffffffffffffff1673ffffffffffffffffffffffffffffffffffffffff1681526020019081526020016000208a6040516104a39190611548565b90815260200160405180910390206005016000808d73ffffffffffffffffffffffffffffffffffffffff1673ffffffffffffffffffffffffffffffffffffffff1681526020019081526020016000208b6040516105009190611548565b90815260200160405180910390206002016000808e73ffffffffffffffffffffffffffffffffffffffff1673ffffffffffffffffffffffffffffffffffffffff1681526020019081526020016000208c60405161055d9190611548565b908152602001604051809103902060060160159054906101000a900460ff168580546105889061158e565b80601f01602080910402602001604051908101604052809291908181526020018280546105b49061158e565b80156106015780601f106105d657610100808354040283529160200191610601565b820191906000526020600020905b8154815290600101906020018083116105e457829003601f168201915b505050505095508480546106149061158e565b80601f01602080910402602001604051908101604052809291908181526020018280546106409061158e565b801561068d5780601f106106625761010080835404028352916020019161068d565b820191906000526020600020905b81548152906001019060200180831161067057829003601f168201915b505050505094508280546106a09061158e565b80601f01602080910402602001604051908101604052809291908181526020018280546106cc9061158e565b80156107195780601f106106ee57610100808354040283529160200191610719565b820191906000526020600020905b8154815290600101906020018083116106fc57829003601f168201915b5050505050925081805461072c9061158e565b80601f01602080910402602001604051908101604052809291908181526020018280546107589061158e565b80156107a55780601f1061077a576101008083540402835291602001916107a5565b820191906000526020600020905b81548152906001019060200180831161078857829003601f168201915b505050505091509550955095509550955095509295509295509295565b600060205281600052604060002081805160208101820180518482526020830160208501208183528095505050505050600091509150508060000180546108089061158e565b80601f01602080910402602001604051908101604052809291908181526020018280546108349061158e565b80156108815780601f1061085657610100808354040283529160200191610881565b820191906000526020600020905b81548152906001019060200180831161086457829003601f168201915b5050505050908060010180546108969061158e565b80601f01602080910402602001604051908101604052809291908181526020018280546108c29061158e565b801561090f5780601f106108e45761010080835404028352916020019161090f565b820191906000526020600020905b8154815290600101906020018083116108f257829003601f168201915b5050505050908060020180546109249061158e565b80601f01602080910402602001604051908101604052809291908181526020018280546109509061158e565b801561099d5780601f106109725761010080835404028352916020019161099d565b820191906000526020600020905b81548152906001019060200180831161098057829003601f168201915b5050505050908060030180546109b29061158e565b80601f01602080910402602001604051908101604052809291908181526020018280546109de9061158e565b8015610a2b5780601f10610a0057610100808354040283529160200191610a2b565b820191906000526020600020905b815481529060010190602001808311610a0e57829003601f168201915b505050505090806004015490806005018054610a469061158e565b80601f0160208091040260200160405190810160405280929190818152602001828054610a729061158e565b8015610abf5780601f10610a9457610100808354040283529160200191610abf565b820191906000526020600020905b815481529060010190602001808311610aa257829003601f168201915b5050505050908060060160009054906101000a900473ffffffffffffffffffffffffffffffffffffffff16908060060160149054906101000a900460ff16908060060160159054906101000a900460ff16905089565b600015156000808373ffffffffffffffffffffffffffffffffffffffff1673ffffffffffffffffffffffffffffffffffffffff16815260200190815260200160002084604051610b659190611548565b908152602001604051809103902060060160149054906101000a900460ff16151514610bc6576040517f08c379a0000000000000000000000000000000000000000000000000000000008152600401610bbd90611631565b60405180910390fd5b60008060008373ffffffffffffffffffffffffffffffffffffffff1673ffffffffffffffffffffffffffffffffffffffff16815260200190815260200160002084604051610c149190611548565b90815260200160405180910390206003018054610c309061158e565b905014610c72576040517f08c379a0000000000000000000000000000000000000000000000000000000008152600401610c69906114ec565b60405180910390fd5b60006040518061012001604052808881526020018781526020018681526020018581526020014281526020018481526020018373ffffffffffffffffffffffffffffffffffffffff16815260200160011515815260200160016002811115610cdd57610cdc611127565b5b8152509050806000808473ffffffffffffffffffffffffffffffffffffffff1673ffffffffffffffffffffffffffffffffffffffff16815260200190815260200160002085604051610d2f9190611548565b90815260200160405180910390206000820151816000019081610d5291906117fd565b506020820151816001019081610d6891906117fd565b506040820151816002019081610d7e91906117fd565b506060820151816003019081610d9491906117fd565b506080820151816004015560a0820151816005019081610db491906117fd565b5060c08201518160060160006101000a81548173ffffffffffffffffffffffffffffffffffffffff021916908373ffffffffffffffffffffffffffffffffffffffff16021790555060e08201518160060160146101000a81548160ff0219169083151502179055506101008201518160060160156101000a81548160ff02191690836002811115610e4857610e47611127565b5b021790555090505050505050505050565b6000604051905090565b600080fd5b600080fd5b600073ffffffffffffffffffffffffffffffffffffffff82169050919050565b6000610e9882610e6d565b9050919050565b610ea881610e8d565b8114610eb357600080fd5b50565b600081359050610ec581610e9f565b92915050565b600080fd5b600080fd5b6000601f19601f8301169050919050565b7f4e487b7100000000000000000000000000000000000000000000000000000000600052604160045260246000fd5b610f1e82610ed5565b810181811067ffffffffffffffff82111715610f3d57610f3c610ee6565b5b80604052505050565b6000610f50610e59565b9050610f5c8282610f15565b919050565b600067ffffffffffffffff821115610f7c57610f7b610ee6565b5b610f8582610ed5565b9050602081019050919050565b82818337600083830152505050565b6000610fb4610faf84610f61565b610f46565b905082815260208101848484011115610fd057610fcf610ed0565b5b610fdb848285610f92565b509392505050565b600082601f830112610ff857610ff7610ecb565b5b8135611008848260208601610fa1565b91505092915050565b6000806040838503121561102857611027610e63565b5b600061103685828601610eb6565b925050602083013567ffffffffffffffff81111561105757611056610e68565b5b61106385828601610fe3565b9150509250929050565b600081519050919050565b600082825260208201905092915050565b60005b838110156110a757808201518184015260208101905061108c565b60008484015250505050565b60006110be8261106d565b6110c88185611078565b93506110d8818560208601611089565b6110e181610ed5565b840191505092915050565b6000602082019050818103600083015261110681846110b3565b905092915050565b6000819050919050565b6111218161110e565b82525050565b7f4e487b7100000000000000000000000000000000000000000000000000000000600052602160045260246000fd5b6003811061116757611166611127565b5b50565b600081905061117882611156565b919050565b60006111888261116a565b9050919050565b6111988161117d565b82525050565b600060c08201905081810360008301526111b881896110b3565b905081810360208301526111cc81886110b3565b90506111db6040830187611118565b81810360608301526111ed81866110b3565b9050818103608083015261120181856110b3565b905061121060a083018461118f565b979650505050505050565b61122481610e8d565b82525050565b60008115159050919050565b61123f8161122a565b82525050565b6000610120820190508181036000830152611260818c6110b3565b90508181036020830152611274818b6110b3565b90508181036040830152611288818a6110b3565b9050818103606083015261129c81896110b3565b90506112ab6080830188611118565b81810360a08301526112bd81876110b3565b90506112cc60c083018661121b565b6112d960e0830185611236565b6112e761010083018461118f565b9a9950505050505050505050565b60008060008060008060c0878903121561131257611311610e63565b5b600087013567ffffffffffffffff8111156113305761132f610e68565b5b61133c89828a01610fe3565b965050602087013567ffffffffffffffff81111561135d5761135c610e68565b5b61136989828a01610fe3565b955050604087013567ffffffffffffffff81111561138a57611389610e68565b5b61139689828a01610fe3565b945050606087013567ffffffffffffffff8111156113b7576113b6610e68565b5b6113c389828a01610fe3565b935050608087013567ffffffffffffffff8111156113e4576113e3610e68565b5b6113f089828a01610fe3565b92505060a061140189828a01610eb6565b9150509295509295509295565b7f557365722061646472657373206d757374206e6f7420626520656d7074790000600082015250565b6000611444601e83611078565b915061144f8261140e565b602082019050919050565b6000602082019050818103600083015261147381611437565b9050919050565b7f4365727469666963617465206964206d757374206e6f7420626520656d70747960008201527f2e00000000000000000000000000000000000000000000000000000000000000602082015250565b60006114d6602183611078565b91506114e18261147a565b604082019050919050565b60006020820190508181036000830152611505816114c9565b9050919050565b600081905092915050565b60006115228261106d565b61152c818561150c565b935061153c818560208601611089565b80840191505092915050565b60006115548284611517565b915081905092915050565b7f4e487b7100000000000000000000000000000000000000000000000000000000600052602260045260246000fd5b600060028204905060018216806115a657607f821691505b6020821081036115b9576115b861155f565b5b50919050565b7f4365727469666963617465206d757374206e6f7420626520616c72656164792060008201527f61646465642e0000000000000000000000000000000000000000000000000000602082015250565b600061161b602683611078565b9150611626826115bf565b604082019050919050565b6000602082019050818103600083015261164a8161160e565b9050919050565b60008190508160005260206000209050919050565b60006020601f8301049050919050565b600082821b905092915050565b6000600883026116b37fffffffffffffffffffffffffffffffffffffffffffffffffffffffffffffffff82611676565b6116bd8683611676565b95508019841693508086168417925050509392505050565b6000819050919050565b60006116fa6116f56116f08461110e565b6116d5565b61110e565b9050919050565b6000819050919050565b611714836116df565b61172861172082611701565b848454611683565b825550505050565b600090565b61173d611730565b61174881848461170b565b505050565b5b8181101561176c57611761600082611735565b60018101905061174e565b5050565b601f8211156117b15761178281611651565b61178b84611666565b8101602085101561179a578190505b6117ae6117a685611666565b83018261174d565b50505b505050565b600082821c905092915050565b60006117d4600019846008026117b6565b1980831691505092915050565b60006117ed83836117c3565b9150826002028217905092915050565b6118068261106d565b67ffffffffffffffff81111561181f5761181e610ee6565b5b611829825461158e565b611834828285611770565b600060209050601f8311600181146118675760008415611855578287015190505b61185f85826117e1565b8655506118c7565b601f19841661187586611651565b60005b8281101561189d57848901518255600182019150602085019450602081019050611878565b868310156118ba57848901516118b6601f8916826117c3565b8355505b6001600288020188555050505b50505050505056fea2646970667358221220d0b0a0e7db1a6dd9f314446fc23134d13ad1103caef2b341cef0b3698900a2ba64736f6c63430008110033",
  "linkReferences": {},
  "deployedLinkReferences": {}
}